:100000000C94EF170C9420180C9420180C942018C2
:100010000C9420180C9420180C9420180C94201880
:100020000C9420180C9420180C9420180C94201870
:100030000C9420180C9420180C9420180C94201860
:100040000C9420180C9420180C9420180C94201850
:100050000C9420180C9420180C9420180C94CC3E6E
:100060000C9420180C940E210C94E4200C9420186D
:100070000C9420180C9420180C9420180C94201820
:100080000C9420180C9420180C9420180C94201810
:100090000C9420180C9420180C9420180C94201800
:1000A0000C9420180C9420180C9420180C942018F0
:1000B0000C9420180C9420180C9420180C942018E0
:1000C0000C9420180C9420180C9420180C942018D0
:1000D0000C9420180C9420180C9420180C942018C0
:1000E0000C942018583A5B3A4A3A4E3A543A923AAB
:1000F0005F3A633A693A6D3A713A773A7B3A7F3AB6
:10010000923A853A893A8D3AAA3DAF3DB43DBE3D1B
:10011000C83D413ED23DDA3DE23DEC3DF63D003E7C
:100120000F3E193E413E233E2D3E373E000000006B
:100130000500010000020D0602F40400050406019A
:10014000F407000A0C0A00F5160009100A01F3284A
:1001500000100D1001F442000B0D0C01F4540002CC
:10016000040401F4550004110601F45E00041106B4
:1001700001F4670005050701F46B0006080B03F99D
:1001800071000204050200720004010601FC730004
:1001900002010501007400050D0500F47D00080D45
:1001A0000A01F48A00040D0A03F49100090D0A0102
:1001B000F4A000080D0A01F4AD00070D0A02F4B91D
:1001C00000090D0A01F4C800090D0A01F4D700085E
:1001D0000D0A00F4E400090D0A01F4F300080D0A09
:1001E00001F40001020A0501F70301030C0501F8FF
:1001F000080109090B01F8130109040B01FB18019F
:1002000009090B01F82301090D0A01F4320111104B
:100210001201F454010C0D0C00F468010B0D0C01DB
:10022000F47A010B0D0D01F48C010B0D0D01F49E00
:1002300001090D0B01F4AD01080D0B01F4BA010C1D
:100240000D0E01F4CE010B0D0D01F4E001020D05C0
:1002500002F4E401070D0A01F4F0010B0D0C01F4A6
:100260000202080D0A01F40F020D0D0F01F4250220
:100270000B0D0D01F437020D0D0E01F44D020A0DA8
:100280000C01F45E020D0E0E01F475020C0D0D0151
:10029000F489020A0D0C01F49A02090D0B01F4A96C
:1002A000020B0D0D01F4BB020B0D0C00F4CD02117D
:1002B0000D1100F4E9020C0D0C00F4FD020C0D0C04
:1002C00000F411030A0D0B01F4220303110501F4DC
:1002D0002903050D0500F4320303110500F4390369
:1002E00007070801F440030A010A0003420304035C
:1002F0000500F44403090A0A01F75003090D0A0135
:10030000F45F03080A0901F76903080D0A01F4768E
:1003100003080A0A01F78003040D0501F4870308A6
:100320000E0A01F79503080D0A01F4A203020D0459
:1003300001F4A60304110400F4AF03090D0901F44C
:10034000BE03020D0401F4C2030D0A0F01F7D3032B
:10035000080A0A01F7DD03080A0A01F7E703090D95
:100360000A01F7F603080D0A01F70304050A06015E
:10037000F70A04080A0901F71404040C0501F51A28
:1003800004080A0A01F72404090A0900F730040DD9
:100390000A0D00F74104080A0900F74B04090E0989
:1003A00000F75B04070A0901F7640404110601F46D
:1003B0006D0402110402F4720404110601F47B04BA
:1003C00007030901F9FFFFF8C0DEF7200986419114
:1003D000FF1304C320C8FF89826190101F14DA3D07
:1003E0001E8340781708F47A3533F040203810EC3B
:1003F00020C620C640C6406C803900013C0277020E
:100400006304630477083C0E0660CC1981E0180F82
:100410000336C2D8730631E3C4FE13266CCCCCC4B9
:100420006623108C4663333332664C80257EA500EC
:1004300030C33F30C30CD6F0C008442110844211B1
:1004400008003C6642C3C3C3C3C3C3C342663C1176
:100450003F33333333303E31B07830181C1C1C1816
:1004600018100807F83C66C3C303061C0703C3C380
:10047000663C0C187162C9A346FE183060C07F202C
:1004800010080807F38C030180F06C63E01E3198BC
:10049000780C06F38D83C1E0D06C63E0FF030206A5
:1004A000040C081818181030303E31B0783C1B1876
:1004B000F8C6C1E0F06C63E03C66C2C3C3C3673BEF
:1004C0000303C2663CC00030C0000064A00081C7C6
:1004D0008E0C0780700E0180FF80001FF000700EF0
:1004E00001C0183871C080003E31B078301818381B
:1004F00018180C0000018003F0060E060186006645
:100500001DBB31CF18C79863CC31E611B399CCF736
:10051000860001800070400FE00600F00F00901987
:10052000819810830C3FC204606606C030FF183308
:1005300003606C0D833FC606C0780F01E06FF81FA3
:10054000861981A03C0180300600C0680D831861C7
:10055000F0FF183303603C0780F01E03C0780F03E0
:1005600060CFF0FFE030180C0603FD80C06030184B
:100570000FF8FFC0C0C0C0C0FEC0C0C0C0C0C00F28
:10058000830E606603C00C00C1FC03C036036073B9
:100590000F0F10C0780F01E03C0780FFFE03C0780A
:1005A0000F01E03C06FFFFFFC0060C183060C1835E
:1005B000078F1E2780C0D8330C630CC1B83F0730AB
:1005C000C3186306606C0CC0C0C0C0C0C0C0C0C04F
:1005D000C0C0C0FFE03F01FC1FE0FD05EC6F637988
:1005E00013CD9E6CF1478E3C7180E07C0FC1E83DDD
:1005F0008798F11E33C3786F07E07C0E0F81831854
:100600000CC06C01E00F007803C01B01980C60C0A7
:10061000F800FF306C0F03C0F06FF300C0300C0324
:1006200000C0000F8183180CC06C01E00F0078033C
:10063000C01B01986C60C0FB0008FF8C0EC06C06EC
:10064000C06C0CFF8C0EC06C06C06C06C0703F18EE
:100650006C0F03C01E01F00E00F03C0D863F00FF42
:1006600086030180C06030180C06030180C0C0788A
:100670000F01E03C0780F01E03C0780F01B061F06D
:10068000C06C0D8110630C610460CC1901603C07E3
:100690000060C18130E19870CC286626211330C8F3
:1006A000986C4C14340A1A07070303808180606336
:1006B0000C30C1980F00E00600F019019830C60E0A
:1006C0006060C0360630C30C1981D80F0060060088
:1006D000600600600600FFC060300C060301C060C9
:1006E0003018060300FFC0FB6DB6DB6DB6E084106A
:1006F00084108410841080EDB6DB6DB6DBE03060D2
:10070000A244D8A180FFC0C6307E71B0C060F3DBC8
:100710000D86C73DC0C060301BCE360F0783C1E0D9
:10072000F07C6DE03C66C3C0C0C0C0C3663C030340
:10073000033B67C3C3C3C3C3C3673B3C66C3C3FFB9
:10074000C0C0C3663C366F66666666603B67C3C3FF
:10075000C3C3C3C3673B0303C67CC0C0C0DEE3C3DF
:10076000C3C3C3C3C3C3C3C3FFFFC03003333333E7
:10077000333333E0C06030184C466361F0EC6231D3
:10078000986C30FFFFFFC0DEF71CF0C7863C31E1FC
:100790008F0C7863C31E18C0DEE3C3C3C3C3C3C3D7
:1007A000C3C33C66C3C3C3C3C3C3663CDE71B07876
:1007B0003C1E0F0783E36F30180C003B67C3C3C3B5
:1007C000C3C3C3673B030303DF318C6318C6003E1A
:1007D000E3C0C0E03C07C3E37E66F666666667C3B7
:1007E000C3C3C3C3C3C3C3C77BC1A098CC4221B09A
:1007F000D0281C0C00C61E3891C4CA66D316D0A6D9
:10080000871C38C0C6004362361C181C3C26624355
:10081000C12198CC4261B0D0381C0C060301030002
:10082000FE0C30C1861820C1FC3666666ECE666648
:100830006630FFFFFFFFC0C666666737666666C044
:10084000612438C5032C01207E1600000000000042
:100850000000000000000000000000000000000098
:100860000000000000000000000000000000000088
:100870000000000000000000000000030000000075
:100880000000000000000000000000000000000068
:1008900000000000000000000000000E000000004A
:1008A0000000000000000000000000000000000048
:1008B00000000000000000000000003C00000000FC
:1008C0000000000000000000000000000000000028
:1008D00000000000000000000000007800000000A0
:1008E0000000000000000000000000000000000008
:1008F0000000000000000000000001F800000000FF
:1009000000000000000000000000000000000000E7
:100910000000000000000000000007F000000000E0
:1009200000000000000000000000000000000000C7
:10093000000000000000000000000FE000000000C8
:1009400000000000000000000000000000000000A7
:10095000000000000000000000003FE00000000078
:100960000000000000000000000000000000000087
:10097000000000000000000000007FC00000000038
:100980000000000000000000000000000000000067
:1009900000000000000000000001FF8000000000D7
:1009A0000000000000000000000000000000000047
:1009B00000000000000000000003FF8000000000B5
:1009C0000000000000000000000000000000000027
:1009D0000000000000000000000FFF000000000009
:1009E0000000000000000000000000000000000007
:1009F0000000000000000000001FFF0000000000D9
:100A000000000000000000000000000000000000E6
:100A10000000000000000000007FFE000000000059
:100A200000000000000000000000000000000000C6
:100A3000000000000000000000FFFE0000000000B9
:100A400000000000000000000000000000000000A6
:100A5000000000000000000003FFFC000000000098
:100A60000000000000000000000000000000000086
:100A7000000000000000000007FFFC000000000074
:100A80000000000000000000000000000000000066
:100A900000000000000000000FFFF8000000000050
:100AA0000000000000000000000000000000000046
:100AB00000000000000000003FFFF8000000000000
:100AC0000000000000000000000000000000000026
:100AD00000000000000000007FFFF00000000000A8
:100AE0000000000000000000000000000000000006
:100AF0000000000000000000FFFFF0000000000008
:100B000000000000000000000000000000000000E5
:100B10000000000000000003FFFFF00000000000E4
:100B200000000000000000000000000000000000C5
:100B30000000000000000007FFFFE00000000000D0
:100B400000000000000000000000000000000000A5
:100B5000000000000000000FFFFFE00000000000A8
:100B60000000000000000000000000000000000085
:100B7000000000000000003FFFFFE0000000000058
:100B80000000000000000000000000000000000065
:100B9000000000000000007FFFFFC0000000000018
:100BA0000000000000000000000000000000000045
:100BB00000000000000000FFFFFFC0000000000078
:100BC0000000000000000000000000000000000025
:100BD00000000000000001FFFFFFC0000000000057
:100BE0000000000000000000000000000000000005
:100BF00000000000000003FFFFFFC0000000000035
:100C000000000000000000000000000000000000E4
:100C10000000000000000FFFFFFFC0000000000008
:100C200000000000000000000000000000000000C4
:100C30000000000000001FFFFFFF80000000000018
:100C400000000000000000000000000000000000A4
:100C50000000000000003FFFFFFF800000000000D8
:100C60000000000000000000000000000000000084
:100C70000000000000007FFFFFFF80000000000078
:100C80000000000000000000000000000000000064
:100C9000000000000000FFFFFFFF800000000000D8
:100CA0000000000000000000000000000000000044
:100CB000000000000001FFFFFFFF800000000000B7
:100CC0000000000000000000000000000000000024
:100CD000000000000003FFFFFFFF80000000000095
:100CE0000000000000000000000000000000000004
:100CF000000000000007FFFFFFFF80000000000071
:100D000000000000000000000000000000000000E3
:100D100000000000000FFFFFFFFF000000000000C8
:100D200000000000000000000000000000000000C3
:100D300000000000001FFFFFFFFF00000000000098
:100D400000000000000000000000000000000000A3
:100D500000000000003FFFFFFFFF00000000000058
:100D60000000000000000000000000000000000083
:100D700000000000007FFFFFFFFF000000000000F8
:100D80000000000000000000000000000000000063
:100D90000000000000FFFFFFFFFF00000000000058
:100DA0000000000000000000000000000000000043
:100DB0000000000001FFFFFFFFFF00000000000037
:100DC0000000000000000000000000000000000023
:100DD0000000000003FFFFFFFFFF00000000000015
:100DE0000000000000000000000000000000000003
:100DF0000000000007FFFFFFFFFF000000000000F1
:100E000000000000000000000000000000000000E2
:100E1000000000000FFFFFFFFFFF000000000000C8
:100E200000000000000000000000000000000000C2
:100E3000000000001FFFFFFFFFFF00000000000098
:100E400000000000000000000000000000000000A2
:100E5000000000001FFFFFFFFFFF00000000000078
:100E60000000000000000000000000000000000082
:100E7000000000003FFFFFFFFFFF00000000000038
:100E80000000000000000000000000000000000062
:100E9000000000007FFFFFFFFFFF000000000000D8
:100EA0000000000000000000000000000000000042
:100EB00000000000FFFFFFFFFFFF00000000000038
:100EC0000000000000000000000000000000000022
:100ED00000000001FFFFFFFFFFFF00000000000017
:100EE0000000000000000000000000000000000002
:100EF00000000001FFFFFFFFFFFF80000000000077
:100F000000000000000000000000000000000000E1
:100F100000000003FFFFFFFFFFFF80000000000054
:100F200000000000000000000000000000000000C1
:100F300000000007FFFFFFFFFFFF80000000000030
:100F400000000000000000000000000000000000A1
:100F50000000000FFFFFFFFFFFFF80000000000008
:100F60000000000000000000000000000000000081
:100F70000000000FFFFFFFFFFFFF800000000000E8
:100F80000000000000000000000000000000000061
:100F90000000001FFFFFFFFFFFFF800000000000B8
:100FA0000000000000000000000000000000000041
:100FB0000000003FFFFFFFFFFFFF80000000000078
:100FC0000000000000000000000000000000000021
:100FD0000000003FFFFFFFFFFFFF80000000000058
:100FE0000000000000000000000000000000000001
:100FF0000000007FFFFFFFFFFFFFC00000000000B8
:1010000000000000000000000000000000000000E0
:10101000000000FFFFFFFFFFFFFFC0000000000017
:1010200000000000000000000000000000000000C0
:10103000000000FFFFFFFFFFFFFFC00000000000F7
:1010400000000000000000000000000000000000A0
:10105000000001FFFFFFFFFFFFFFC00000000000D6
:101060000000000000000000000000000000000080
:10107000000001FFFFFFFFFFFFFFC00000000000B6
:101080000000000000000000000000000000000060
:10109000000003FFFFFFFFFFFFFFC0000000000094
:1010A0000000000000000000000000000000000040
:1010B000000003FFFFFFFFFFFFFFE0000000000054
:1010C0000000000000000000000000000000000020
:1010D000000007FFFFFFFFFFFFFFE0000000000030
:1010E0000000000000000000000000000000000000
:1010F000000007FFFFFFFFFFFFFFE0000000000010
:1011000000000000000000000000000000000000DF
:1011100000000FFFFFFFFFFFFFFFE00000000000E7
:1011200000000000000000000000000000000000BF
:1011300000000FFFFFFFFFFFFFFFE00000000000C7
:10114000000000000000000000000000000000009F
:1011500000001FFFFFFFFFFFFFFFF0000000000087
:10116000000000000000000000000000000000007F
:1011700000001FFFFFFFFFFFFFFFF0000000000067
:10118000000000000000000000000000000000005F
:1011900000001FFFFFFFFFFFFFFFF0000000000047
:1011A000000000000000000000000000000000003F
:1011B00000003FFFFFFFFFFFFFFFF0000000000007
:1011C000000000000000000000000000000000001F
:1011D00000003FFFFFFFFFFFFFFFF80000000000DF
:1011E00000000000000000000000000000000000FF
:1011F00000007FFFFFFFFFFFFFFFF800000000007F
:1012000000000000000000000000000000000000DE
:1012100000007FFFFFFFFFFFFFFFF800000000005E
:1012200000000000000000000000000000000000BE
:1012300000007FFFFFFFFFFFFFFFF800000000003E
:10124000000000000000000000000000000000009E
:101250000000FFFFFFFFFFFFFFFFF800000000009E
:10126000000000000000000000000000000000007E
:101270000000FFFFFFFFFFFFFFFFFC00000000007A
:10128000000000000000000000000000000000005E
:101290000000FFFFFFFFFFFFFFFFFC00000000005A
:1012A000000000000000000000000000000000003E
:1012B0000000FFFFFFFFFFFFFFFFFC00000000003A
:1012C000000000000000000000000000000000001E
:1012D0000001FFFFFFFFFFFFFFFFFC000000000019
:1012E00000000000000000000000000000000000FE
:1012F0000001FFFFFFFFFFFFFFFFFE0000000000F7
:1013000000000000000000000000000000000000DD
:101310000001FFFFFFFFFFFFFFFFFE0000000000D6
:1013200000000000000000000000000000000000BD
:101330000001FFFFFFFFFFFFFFFFFE0000000000B6
:10134000000000000000000000000000000000009D
:101350000001FFFFFFFFFFFFFFFFFE000000000096
:10136000000000000000000000000000000000007D
:101370000001FFFFFFFFFFFFFFFFFF000000000075
:10138000000000000000000000000000000000005D
:101390000001FFFFFFFFFFFFFFFFFF000000000055
:1013A000000000000000000000000000000000003D
:1013B0000003FFFFFFFFFFFFFFFFFF000000000033
:1013C000000000000000000000000000000000001D
:1013D0000003FFFFFFFFFFFFFFFFFF000000000013
:1013E00000000000000000000000000000000000FD
:1013F0000003FFFFFFFFFFFFFFFFFF800000000073
:1014000000000000000000000000000000000000DC
:101410000003FFFFFFFFFFFFFFFFFF800000000052
:1014200000000000000000000000000000000000BC
:101430000003FFFFFFFFFFFFFFFFFF800000000032
:10144000000000000000000000000000000000009C
:101450000003FFFFFFFFFFFFFFFFFF800000000012
:10146000000000000000000000000000000000007C
:101470000003FFFFFFFFFFFFFFFFFF8000000000F2
:10148000000000000000000000000000000000005C
:101490000003FFFFFFFFFFFFFFFFFF8000000000D2
:1014A000000000000000000000000000000000003C
:1014B0000001FFFFFFFFFFFFFFFFFF8000000000B4
:1014C000000000000000000000000000000000001C
:1014D0000001FFFFFFFFFFFFFFFFFF800000000094
:1014E00000000000000000000000000000000000FC
:1014F0000001FFFFFFFFFFFFFFFFFF800000000074
:1015000000000000000000000000000000000000DB
:101510000001FFFFFFFFFFFFFFFFFF800000000053
:1015200000000000000000000000000000000000BB
:101530000001FFFFFFFFFFFFFFFFFF800000000033
:10154000000000000000000000000000000000009B
:101550000001FFFFFFFFFFFFFFFFFF800000000013
:10156000000000000000000000000000000000007B
:101570000000FFFFFFFFFFFFFFFFFF8000000000F4
:10158000000000000000000000000000000000005B
:101590000000FFFFFFFFFFFFFFFFFF8000000000D4
:1015A000000000000000000000000000000000003B
:1015B0000000FFFFFFFFFFFFFFFFFF000000000034
:1015C000000000000000000000000000000000001B
:1015D0000000FFFFFFFFFFFFFFFFFF000000000014
:1015E00000000000000000000000000000000000FB
:1015F00000007FFFFFFFFFFFFFFFFF000000000074
:1016000000000000000000000000000000000000DA
:1016100000007FFFFFFFFFFFFFFFFF000000000053
:1016200000000000000000000000000000000000BA
:1016300000007FFFFFFFFFFFFFFFFE000000000034
:10164000000000000000000000000000000000009A
:1016500000003FFFFFFFFFFFFFFFFE000000000054
:10166000000000000000000000000000000000007A
:1016700000003FFFFFFFFFFFFFFFFE000000000034
:10168000000000000000000000000000000000005A
:1016900000001FFFFFFFFFFFFFFFFC000000000036
:1016A000000000000000000000000000000000003A
:1016B00000001FFFFFFFFFFFFFFFFC000000000016
:1016C000000000000000000000000000000000001A
:1016D00000000FFFFFFFFFFFFFFFF800000000000A
:1016E00000000000000000000000000000000000FA
:1016F00000000FFFFFFFFFFFFFFFF80000000000EA
:1017000000000000000000000000000000000000D9
:10171000000007FFFFFFFFFFFFFFF00000000000D9
:1017200000000000000000000000000000000000B9
:10173000000003FFFFFFFFFFFFFFF00000000000BD
:101740000000000000000000000000000000000099
:10175000000003FFFFFFFFFFFFFFE00000000000AD
:101760000000000000000000000000000000000079
:10177000000001FFFFFFFFFFFFFFC00000000000AF
:101780000000000000000000000000000000000059
:10179000000000FFFFFFFFFFFFFF800000000000D0
:1017A0000000000000000000000000000000000039
:1017B0000000007FFFFFFFFFFFFF80000000000030
:1017C0000000000000000000000000000000000019
:1017D0000000003FFFFFFFFFFFFF000000000000D0
:1017E00000000000000000000000000000000000F9
:1017F0000000001FFFFFFFFFFFFE000000000000D1
:1018000000000000000000000000000000000000D8
:101810000000000FFFFFFFFFFFFC000000000000C2
:1018200000000000000000000000000000000000B8
:1018300000000007FFFFFFFFFFF8000000000000AE
:101840000000000000000000000000000000000098
:1018500000000003FFFFFFFFFFE0000000000000AA
:101860000000000000000000000000000000000078
:1018700000000001FFFFFFFFFFC0000000000000AC
:101880000000000000000000000000000000000058
:10189000000000007FFFFFFFFF00000000000000CD
:1018A0000000000000000000000000000000000038
:1018B000000000003FFFFFFFFE00000000000000EE
:1018C0000000000000000000000000000000000018
:1018D000000000000FFFFFFFF80000000000000004
:1018E00000000000000000000000000000000000F8
:1018F0000000000003FFFFFFE00000000000000008
:1019000000000000000000000000000000000000D7
:1019100000000000007FFFFF00000000000000004A
:1019200000000000000000000000000000000000B7
:10193000000000000007FFF80000000000000000A9
:101940000000000000000000000000000000000097
:101950000000000000000000000000000000000087
:101960000000000000000000000000000000000077
:101970000000000000000000000000000000000067
:101980000000000000000000000000000000000057
:101990000000000000000000000000000000000047
:1019A0000000000000000000000000000000000037
:1019B0000000000000000000000000000000000027
:1019C0000000000000000000000000000000000017
:1019D0000000000000000000000000000000000007
:1019E00000000000000000000000000000000000F7
:1019F00000000000000000000000000000000000E7
:101A000000000000000000000000000000000000D6
:101A100000000000000000000000000000000000C6
:101A200000000000000000000000000000000000B6
:101A300000000000000000000000000000000000A6
:101A40000000000000000000000000000000000096
:101A50000000000000000000000000000000000086
:101A60000000000000000000000000000000000076
:101A70000000000000000000000000000000000066
:101A80000000000000000000000000000000000056
:101A90000000000000000000000000000000000046
:101AA000000000D80000000000000000000000005E
:101AB0000000000000000000000000000000000026
:101AC0000000010400000000000000000000000011
:101AD0000000000000000000000000000000001FE7
:101AE000000002D20000000000000000007FFE00A5
:101AF00000000000000000007F000000000007FF61
:101B0000F0000292000000000000000003FFFFC090
:101B10000000000000000003FF00000000001FFFA5
:101B2000FE0002E200000000000000000FFFFFF8CE
:101B3000000000000000000FFF00000000007FFF19
:101B4000FF00029200000000000000003FFFFFFCC9
:101B5000000000000000003FFF0000000001FFFF48
:101B6000FFC001040000000000000000FFFFFFFFB5
:101B7000000000000000007FFF0000000007FFFFE2
:101B8000FFE000880000000000000001FFF81FFFD8
:101B900080000000000001FFFC000000000FFF803B
:101BA0007FF000200000000000000003FF8001FF24
:101BB000C0000000000003FF80000000001FFC00C8
:101BC0000FE000000000000000000007FE00003FE2
:101BD000F0000000000007FE00000000003FE000F1
:101BE00003C00000000000000000000FF800000F1C
:101BF000F800000000000FF800000000007FC000A7
:101C000001800000000000000000001FE00000074D
:101C1000F800000000001FE00000000000FF0000CE
:101C200000000000000000000000003FC0000003B2
:101C3000FC00000000003FC00000000001FE0000AA
:101C400000000000000000000000007F8000000194
:101C5000FE00000000003F800000000003FC0000C8
:101C600000000000000000000000007F00000000F5
:101C7000FF00000000007F000000000003F80000EB
:101C80000000000000000000000000FE0000000056
:101C90007F0000000000FE000000000007F00000D0
:101CA0000000000000000000000000FC0000000038
:101CB0003F8000000000FC000000000007E0000082
:101CC0000000000000000000000001F8000000001B
:101CD0001F8000000001FC00000000000FE0000079
:101CE0000000000000000000000001F800000000FB
:101CF0001FC000000001F800000000000FC000003D
:101D00000000000000000000000003F000000000E0
:101D10000FC000000003F800000000001F8000005A
:101D20000000000000000000000003F000000000C0
:101D30000FC000000003F000000000001F80000042
:101D40000000000000000000000003E000000000B0
:101D500007E000000003F000000000001F8000000A
:101D60000000000000000000000007E0000000008C
:101D700007E000000007E000000000003F00000056
:101D80000000000000000000000007E0000000006C
:101D900007E000000007E000000000003F00000036
:101DA0000000000000000000000007E0000000004C
:101DB00003E000000007E000000000003F0000001A
:101DC0000000000000000000000007C0000000004C
:101DD00003F000000007C000000000003F0000000A
:101DE0000000000000000000000007C0000000002C
:101DF00003F000000007C000000000003E000000EB
:101E0000000000000000000000000FC00000000003
:101E100003F000000007C000000000003E000000CA
:101E2000000000000000000000000FC000000000E3
:101E300003F000000007C000000000003E000000AA
:101E4000000000000000000000000FC000000000C3
:101E500003F000000007C000000000003E0000008A
:101E6000000000000000000000000FC000000000A3
:101E700003F000000007C000000000003E0000006A
:101E8000000000000000000000000FC00000000083
:101E900003F000000007C000000000003E0000004A
:101EA0000000000000000000000007C0000000006B
:101EB00003F000000007C000000000003E0000002A
:101EC0000000000000000000000007C0000000004B
:101ED00003F000000007C000000000003F00000009
:101EE0000000000000000000000007E0000000000B
:101EF00003F000000007C000000000003F000000E9
:101F00000000000000000000000007E000000000EA
:101F100007F000000007C000000000003F000000C4
:101F20000000000000000000000007E000000000CA
:101F300007F000000007C000000000001F000000C4
:101F40000000000000000000000003F0000000009E
:101F500007F000000007C000000000001F80000024
:101F60000000000000000000000003F0000000007E
:101F70000FF000000007C000000000001F800000FC
:101F80000000000000000000000003F0000000005E
:101F90000FF000000007C000000000000FC00000AC
:101FA0000000000000000000000001F80000000038
:101FB0001FF000000007C000000000000FC000007C
:101FC0000000000000000000000001FC0000000014
:101FD0001FF000000007C0000000000007E0000044
:101FE0000000000000000000000000FC00000000F5
:101FF0003FF000000007C0000000000007F00000F4
:102000000000000000000000000000FE00000000D2
:102010007FF000000007C0000000000003F800008F
:1020200000000000000000000000007F0000000031
:10203000FFF000000007C0000000000003F80000EF
:1020400000000000000000000000003F80000001D0
:10205000FFF000000007C0000000000001FC0000CD
:1020600000000000000000000000003FC00000036E
:10207000FFF000000007C0000000000000FF0000AB
:1020800000000000000000000000001FE00000074A
:10209000FBF000000007C00000000000007F80008F
:1020A00001800000000000000000000FF800001F89
:1020B000F3F000000007C00000000000007FE00017
:1020C00003C000000000000000000007FE00007FC9
:1020D000E3F000000007C00000000000003FF8002F
:1020E00007E000000000000000000003FF8001FF87
:1020F000C3F000000007C00000000000000FFE0059
:102100003FF000000000000000000001FFFE7FFF24
:1021100083F000000007C000000000000007FFFF80
:10212000FFE0000000000000000000007FFFFFFF54
:1021300003F000000007C000000000000003FFFFE4
:10214000FFC0000000000000000000003FFFFFFC97
:1021500003F000000007C000000000000000FFFFC7
:10216000FF80000000000000000000000FFFFFF0F3
:1021700003F000000007C0000000000000003FFF67
:10218000FE000000000000000000000001FFFFC092
:1021900003F000000007C00000000000000007FF7F
:1021A000F80000000000000000000000003FFC00FC
:1021B000000000000000000000000000000000FF20
:1021C000C00000000000000000000000000000004F
:1021D00000000000000000000000000000000000FF
:1021E00000000000000000000000000000000000EF
:1021F00000000000000000000000000000000000DF
:1022000000000000000000000000000000000000CE
:1022100000000000000000000000000000000000BE
:1022200000000000000000000000000000000000AE
:10223000000000000000000000000000000000009E
:10224000000000000000000000000000000000008E
:10225000000000000000000000000000000000007E
:10226000000000000000000000000000000000006E
:10227000000000000000000000000000000000005E
:10228000000000000000000000000000000000004E
:10229000000000000000000000000000000000003E
:1022A000000000000000000000000000000000002E
:1022B000000000000000000000000000000000001E
:1022C000000000000000000000000000000000000E
:1022D00000000000000000000000000000000000FE
:1022E00000000000000000000000000000000000EE
:1022F00000000000000000000001000000000000DD
:1023000000000000000000000000000000000000CD
:1023100000001000000000000001000000000000AC
:10232000000000000000000000000000200000008D
:10233000000010000000000000010000000000008C
:102340000000000000000000000000002000000865
:10235000000010000000000000010000000000006C
:10236000000000000000000000001C073C00070FF8
:102370000F0390087078781C0639700707039C07D4
:1023800003C070000000000000006318209048CCDB
:10239000198470318880CC230CC188089884F21984
:1023A0008661888400000000000041102090906841
:1023B000204810230481024190810C103048613084
:1023C0004812048400000000000080A020909028A3
:1023D000204810420481024091010410202821204D
:1023E0004812048400000000000080A02089A02082
:1023F0003FD01043FE79FE80910104102028212057
:102400000812008400000000000080A02089202025
:1024100020081042000900408101041020282120DA
:1024200048120284000000000000419020851060E6
:10243000200810420005004080810410304821200F
:10244000481202840000000000006398248608E51A
:10245000900460410008802390C1040818C821300E
:10246000843202CC0000000000001C87180207A381
:102470000F03C000F0F0781E003900070F08002F8E
:1024800003C0007C0000000000000000000000000D
:10249000000000000000000000000000000000201C
:1024A0000000000400000000000000000000000028
:1024B00000000000000000000000000000000020FC
:1024C0000000000400000000000000000000000008
:1024D00000000000000000000000000000000020DC
:1024E0000000000C000000000000000000000000E0
:1024F00000000000000000000000000000000020BC
:1025000000000018000000000000000000000000B3
:1025100000000000000000000000000000000000BB
:1025200000000000000000000000000000000000AB
:10253000000000000000000000000000000000009B
:10254000000000000000000000000000000000008B
:1028400000000000000000000000446F6E652100E1
:10285000526F756E646564207265637473202866B8
:10286000696C6C65642920202000526F756E646568
:102870006420726563747320286F75746C696E656B
:1028800029202000547269616E676C657320286688
:10289000696C6C656429202020202020200054725F
:1028A00069616E676C657320286F75746C696E65FD
:1028B000292020202020200052656374616E676CFF
:1028C0006573202866696C6C6564292020202020AF
:1028D00020004C696E6573202020202020202020BD
:1028E00020202020202020202020200054657874E3
:1028F00020202020202020202020202020202020D8
:1029000020202020200053637265656E2066696C6C
:102910006C2020202020202020202020202020008B
:1029200042656E63686D61726B202020202020203C
:1029300020202020202020202054696D6520286D33
:102940006963726F7365636F6E64732900EF0303CD
:102950008002CF0300C130ED0464031281E80385D7
:102960000078CB05392C003402F70120EA02000080
:10297000C00123C10110C5023E28C70186360148A7
:102980003701003A0155B1020018B603088227F258
:102990000100260101E00F0F312B0C0E084EF1371C
:1029A0000710030E0900E10F000E1403110731C1D7
:1029B00048080F0C31360F118029800000000000FC
:1029C000003E5B4F5B3E3E6B4F6B3E1C3E7C3E1CB5
:1029D000183C7E3C181C577D571C1C5E7F5E1C00FB
:1029E000183C1800FFE7C3E7FF0018241800FFE7B2
:1029F000DBE7FF30483A060E2629792926407F0575
:102A00000507407F05253F5A3CE73C5A7F3E1C1C8A
:102A100008081C1C3E7F14227F22145F5F005F5F4A
:102A200006097F017F006689956A60606060609436
:102A3000A2FFA29408047E040810207E201008083B
:102A40002A1C08081C2A08081E101010100C1E0C46
:102A50001E0C30383E3830060E3E0E0600000000D8
:102A60000000005F00000007000700147F147F14BF
:102A7000242A7F2A12231308646236495620500004
:102A800008070300001C2241000041221C002A1CF0
:102A90007F1C2A08083E08080080703000080808DB
:102AA0000808000060600020100804023E514945FB
:102AB0003E00427F400072494949462141494D3319
:102AC0001814127F1027454545393C4A4949314180
:102AD000211109073649494936464949291E00004E
:102AE00014000000403400000008142241141414A3
:102AF0001414004122140802015909063E415D598F
:102B00004E7C1211127C7F494949363E4141412297
:102B10007F4141413E7F494949417F090909013EC1
:102B2000414151737F0808087F00417F41002040E8
:102B3000413F017F081422417F404040407F021CFA
:102B4000027F7F0408107F3E4141413E7F09090911
:102B5000063E4151215E7F091929462649494932DD
:102B600003017F01033F4040403F1F2040201F3FA3
:102B70004038403F63140814630304780403615928
:102B8000494D43007F41414102040810200041416A
:102B9000417F040201020440404040400003070816
:102BA0000020545478407F28444438384444442812
:102BB000384444287F385454541800087E090218B9
:102BC000A4A49C787F0804047800447D4000204041
:102BD000403D007F1028440000417F40007C047885
:102BE00004787C080404783844444438FC182424CD
:102BF0001818242418FC7C0804040848545454244D
:102C000004043F44243C4040207C1C2040201C3CC9
:102C10004030403C44281028444C9090907C4464C0
:102C2000544C440008364100000077000000413653
:102C3000080002010204023C2623263C1EA1A161D9
:102C4000123A4040207A385454555921555579410B
:102C50002254547842215554784020545579400CE0
:102C60001E527212395555555939545454593955C3
:102C70005454580000457C410002457D4200014506
:102C80007C407D1211127DF0282528F07C5455459A
:102C9000002054547C547C0A097F49324949493206
:102CA0003A4444443A324A4848303A4141217A3A17
:102CB00042402078009DA0A07D3D4242423D3D40E3
:102CC00040403D3C24FF2424487E4943662B2FFC92
:102CD0002F2BFF0929F620C0887E09032054547940
:102CE000410000447D413048484A32384040227A11
:102CF000007A0A0A727D0D19317D2629292F28268E
:102D00002929292630484D40203808080808080895
:102D10000808382F10C8ACBA2F102834FA00007BEE
:102D2000000008142A142222142A14085500550001
:102D300055AA55AA55AAFF55FF55FF000000FF00F0
:102D4000101010FF00141414FF001010FF00FF10EB
:102D500010F010F0141414FC001414F700FF00001D
:102D6000FF00FF1414F404FC141417101F10101F9C
:102D7000101F1414141F00101010F0000000001F8A
:102D8000101010101F10101010F010000000FF1095
:102D90001010101010101010FF10000000FF140091
:102DA00000FF00FF00001F10170000FC04F41414C3
:102DB0001710171414F404F40000FF00F71414148F
:102DC00014141414F700F7141414171410101F100F
:102DD0001F141414F4141010F010F000001F101F32
:102DE0000000001F14000000FC140000F010F010A0
:102DF00010FF10FF141414FF141010101F00000017
:102E000000F010FFFFFFFFFFF0F0F0F0F0FFFFFF1A
:102E10000000000000FFFF0F0F0F0F0F3844443871
:102E200044FC4A4A4A347E02020606027E027E02C0
:102E300063554941633844443C04407E201E2006CB
:102E4000027E020299A5E7A5991C2A492A1C4C7208
:102E500001724C304A4D4D303048784830BC625A8F
:102E6000463D3E494949007E0101017E2A2A2A2A1F
:102E70002A44445F444440514A444040444A5140FB
:102E80000000FF0103E080FF000008086B6B0836BC
:102E900012362436060F090F06000018180000002D
:102EA0001010003040FF0101001F01011E00191D1C
:102EB0001712003C3C3C3C000000000000002100D8
:102EC000240027002A002D003000330001010000FB
:102ED000040107010A0100002200250028002B0040
:102EE0002E003100340002010000050108010B0131
:102EF000000020002300260029002C002F003200B3
:102F0000000100000301060109010505050507058B
:102F100008080808020202020A0A08080404040455
:102F20000101010101010101030303030303030381
:102F3000040707070C0C0C0C0C0C0C0C0202020210
:102F400006060606060606060B0B0B0B0B0B0B0BF9
:102F500001021020200808102040102040800201AB
:102F60000201080402010102040810204080804090
:102F7000201008040201800402018040201008048F
:102F8000020108040201010204081020408001022D
:102F900004081020408000000A0B02090C0D0E08E6
:102FA0000703040100000000000000000000000012
:102FB0000000000000000000000000000000000011
:102FC00000001211100000000000000000000000CE
:102FD0000000000000000000000000002D5111243E
:102FE0001FBECFEFD1E2DEBFCDBF00E00CBF28E0B7
:102FF000A4EDB6E001C01D92AE30B207E1F716E0D5
:10300000A0E0B2E0EAEBFCEA00E00BBF02C00790F0
:103010000D92A43DB107D9F717E1CFEED7E100E05B
:1030200006C021970109802FFE010E941655CE3E51
:10303000D10780E00807A9F70E94163F0C945B5661
:103040000C940000089580E090E00895CF93DF9302
:103050001F92CDB7DEB7FC016370658B623041F023
:10306000633079F0613011F088E403C088E20AC06F
:1030700088E8898380EF90E09187808780E491E001
:1030800008C088EE898380E491E09187808780EF93
:1030900090E09387828721E0AE014F5F5F4F66E348
:1030A000CF010E94CF250F90DF91CF910895089511
:1030B0008F929F92AF92BF92CF92DF92EF92FF9248
:1030C0000F931F93CF93DF931F92CDB7DEB74C01C1
:1030D0006A017B01452B462B472B31F4C12C52E171
:1030E000D52E5AE7E52EF12CD401D6968C9187FD8A
:1030F00008C061E00E94473D61E0F40186A90E949A
:10310000423C61E0D401D7968C910E94473D61E03A
:10311000F40187A90E94423CD401D4968C9181117C
:1031200022C090E000E012E12AE730E0C016D106AC
:10313000E206F30640F436952795179507959F5FAD
:103140009630A1F797E081E08927982F906A9695AD
:10315000F40190A3817081A312A213A214A215A25C
:103160000E9430305AC08130F1F461E0F40181A551
:103170000E94473D60E0D40199968C910E94423CA8
:1031800061E0F40183A50E94473D60E0D4019B9675
:103190008C910E94423CF40182A587FD3EC060E014
:1031A0000E94473D3AC000E010E0F801E65FF04DB4
:1031B000E491F0E0EE0FFF1FEA52F14D85919491FA
:1031C000D4015E962D913C915F972817390741F401
:1031D00061E0802F0E94473D60E0802F0E94423CCA
:1031E0000F5F1F4F0634110501F761E0F40185A55B
:1031F0000E94473D61E0D4019D968C910E94423C23
:10320000F40186A587FD09C061E00E94473D61E0A9
:10321000D4019E968C910E94423CF40185A987FDC1
:1032200026C061E00E94473D61E0D401D5968C91B3
:103230000E94423C64E670E080E090E00E94943E90
:1032400060E0F40185A90E94423C64E670E080E001
:1032500090E00E94943E61E0D401D5968C910E944A
:10326000423C68EC70E080E090E00E94943EF40103
:1032700085A987FF0DC020E040E050E061E0C40177
:103280000E94CF2566E970E080E090E00E94943EC5
:103290000DE419E2C8010196F8016491662309F46E
:1032A0005BC00E5F1F4FFC01F490FF2DFF77CF2E08
:1032B000C40169830E94B625D401D6968C91D69715
:1032C000698187FD09C05A96ED91FC915B979081C9
:1032D000D1968C9189238083D4015C96ED91FC91E9
:1032E0005D979081D3968C9189238083C4010E943D
:1032F0004825D4015C96ED91FC915D979081D29622
:103300008C91892B8083A12CB12CD12CAC14BD04C1
:103310005CF4F801EA0DFB1D6491C4010E9448258C
:10332000BFEFAB1ABB0AF2CFF40186A987FD09C033
:10333000028CF38DE02D9081D401D0968C91892B55
:1033400080830C0D1D1DF7FEA5CF66E970E080E0BF
:1033500090E00E94943E9ECF80EF90E0D4011996B9
:103360009C938E93189780E491E01B969C938E9388
:103370001A970F90DF91CF911F910F91FF90EF90CF
:10338000DF90CF90BF90AF909F908F9008958CBDAD
:103390009DBD0895FC01628191E06927628380816F
:1033A0000C94423C8F929F92AF92BF92CF92DF9249
:1033B000EF92FF92CF93DF93EC014A015B01C12CA6
:1033C000D12C7601C814D904EA04FB0471F061E041
:1033D00070E080E090E00E94943ECE01DBDF8FEF52
:1033E000C81AD80AE80AF80AEDCFDF91CF91FF900A
:1033F000EF90DF90CF90BF90AF909F908F90089507
:103400002F923F924F925F926F927F928F929F92F4
:10341000AF92BF92CF92DF92EF92FF920F931F93E2
:10342000CF93DF93CDB7DEB760970FB6F894DEBFCA
:103430000FBECDBF9A8389834A015B012801390100
:10344000FC86EB86DE86CD8660E070E0DC011E96B1
:103450008C910E94833D01E010E0E12CF12CED8580
:10346000FE85199581116BC120E030E0A901C501ED
:10347000B4010E94A95418167CF4A981BA81ED9177
:10348000FC91A301920160817181828193810E94EC
:10349000E55118160CF05DC020E030E0A901C5012F
:1034A000B4010E94E55187FFDACFA981BA81ED917D
:1034B000FC91A301920160817181828193810E94BC
:1034C000A95487FF46C0CBCF22242394312C1C82E1
:1034D0001B8220E030E0A901C501B4010E94A9547B
:1034E000A981BA810D911C916101032C000CEE0899
:1034F000FF081816D4F5C701B6010E94EB519B01D5
:10350000AC01C501B4010E944A52F8012081318109
:10351000428153810E944653A30192010E94A95403
:1035200018161CF5B1E02B16310409F43FC0EAE08F
:103530002E16310449F2F2E32F16310471F059E1ED
:10354000E52EF12C0AE010E044E62416310409F0DF
:10355000C0CF1801FC82EB82BCCF3AE0232E312C85
:103560008AE090E09C838B83B4CF20E030E0A90117
:10357000C501B4010E94E55187FF1CC0C701B60117
:103580000E94EB519B01AC01C501B4010E944A525B
:10359000D8012D913D914D915C910E944653A3011C
:1035A00092010E94E55187FDBDCF04C0212C312C32
:1035B0001C821B82D8018D919D910D90BC91A02DF4
:1035C0008D839E83AF83B887B2E02B1631044CF114
:1035D00020E030E0A901C501B4010E94A9541816E9
:1035E0005CF46D817E818F8198850E945654F8012C
:1035F000608371838283938320E030E0A901C50159
:10360000B4010E94E55187FF0CC0D8016D917D91F6
:103610008D919C910E94AA53F801608371838283EB
:103620009383B101032C000C880B990B0E94EB5182
:103630009B01AC01C501B4010E944A52D8012D91F1
:103640003D914D915C910E9446536B017C01F801C4
:103650006083718382839383A981BA8150960D9090
:10366000BC91A02DB88BAF87AC5BBF4FBA87A98741
:103670008D919C910F8518890E5B1F4FF801208159
:103680003181EFEFFFEFAF85B8895396FC93EE934E
:1036900052975196FC93EE9350971D963C932E9320
:1036A0001C971F969C938E931E9721E030E04D81CE
:1036B0005E816F817885CD0185D5AF85B8895396B8
:1036C0001C921E92529751961C921E925097E98519
:1036D000FA8580819181D8012D913C91EF85F889FF
:1036E000358724879787868721E030E0B701A601D8
:1036F000CF0168D5EB80FC80FFEFEF1AFF0A4AE0AC
:10370000E416F1049CF059E1E516F10444F08DE271
:10371000E816F10444F024E6222E312C07C09AE08A
:10372000292E312C03C082E3282E312C44E650E0B0
:1037300060E070E08B859C8535DE810190CEA981AB
:10374000BA81ED91FC9120E030E040E251E46081EB
:103750007181828193810E944A520E942554162FC2
:10376000672F82E090E00E940653612F83E090E093
:1037700060960FB6F894DEBF0FBECDBFDF91CF913C
:103780001F910F91FF90EF90DF90CF90BF90AF907F
:103790009F908F907F906F905F904F903F902F9071
:1037A0000C9406538F929F92AF92BF92CF92DF926A
:1037B000EF92FF920F931F93CF93DF93EC015B0186
:1037C0006A0179016FEF7FEF0E94002A61E0CE016C
:1037D0003DDC82E08C8B1B8A1A8A198A188A34E1B4
:1037E000832E912C9D868C8688E290E09F878E8721
:1037F000B501CE01E8D4C114D10461F11B8A1A8A43
:10380000198A188A9D868C862AE5A22EB12CBF863D
:10381000AE8664EE75E0CE01D6D41B8A1A8A198A68
:10382000188A85E590E09D878C87BF86AE86B601B5
:10383000CE01C9D41B8A1A8A198A188A89E390E0B2
:103840009D878C8781EE90E09F878E8769EE75E07B
:10385000CE01B9D4E114F10471F11B8A1A8A198AD4
:10386000188A84E190E09D878C879DE7C92ED12C32
:10387000DF86CE866BEE75E0CE01A5D41B8A1A8A50
:10388000198A188A85E590E09D878C87DF86CE8629
:10389000B701CE0198D41B8A1A8A198A188A85E939
:1038A00090E09D878C8781EE90E09F878E8760EF08
:1038B00075E0CE0188D401151105D1F11B8A1A8A51
:1038C000198A188A84E190E09D878C8780EAE82E27
:1038D000F12CFF86EE8662EF75E0CE0174D41B8A70
:1038E0001A8A198A188A85E590E09D878C87FF8659
:1038F000EE86B801CE0167D41B8A1A8A198A188A03
:1039000083EF90E09D878C8781EE90E09F878E8784
:1039100067EF75E0CE01DF91CF911F910F91FF907E
:10392000EF90DF90CF90BF90AF909F908F904BC45F
:10393000DF91CF911F910F91FF90EF90DF90CF908B
:10394000BF90AF909F908F900895AF92BF92CF920B
:10395000DF92EF92FF920F931F93CF93DF93EC01CF
:103960005B018B012EE130E048EC50E066E470E052
:10397000FFD52EE130E048EC50E067E470E0CE0186
:10398000F7D52EE130E048EC50E068E470E0CE017D
:10399000EFD52EE130E048EC50E069E470E0CE0174
:1039A000E7D52EE130E048EC50E06AE470E0CE016B
:1039B000DFD582EDC82ED12C94E5E92EF12C02ED55
:1039C00010E02CE330E04EEB50E068E470E0CE0114
:1039D0000E94132CDF91CF911F910F91FF90EF90D8
:1039E000DF90CF90BF90AF900895AF92BF92CF92EB
:1039F000DF92EF92FF920F931F93CF93DF93EC012F
:103A00005B018B012EE130E04EEB50E060EA70E0AC
:103A1000AFD52EE130E04EEB50E061EA70E0CE0130
:103A2000A7D52EE130E04EEB50E062EA70E0CE0127
:103A30009FD52EE130E04EEB50E063EA70E0CE011E
:103A400097D52EE130E04EEB50E064EA70E0CE0115
:103A50008FD582EDC82ED12C9EEAE92EF12C02EDF5
:103A600010E026E930E046EE50E062EA70E0CE0178
:103A70000E94132CDF91CF911F910F91FF90EF9037
:103A8000DF90CF90BF90AF9008950F931F93CF9387
:103A9000DF93EC010FEF1FEF1B8B0A8B198B088B49
:103AA0008DE290E09D878C8788EC90E09F878E87E1
:103AB00069EF75E0CE0187D31B8B0A8B198B088BBE
:103AC00086E490E09D878C878BEE90E09F878E87C1
:103AD00067E076E0CE0177D31B8A1A8A198A188AA2
:103AE00082ED90E09D878C878CED90E09F878E879C
:103AF00061E176E0CE0167D360E070E0CE0125DFC2
:103B000060E070E0CE01DF91CF911F910F916DCFFA
:103B1000CF93DF93EC016FEF7FEF17DF6FEF7FEF56
:103B2000CE0163DF8FEF9FEF9B8B8A8B998B888B06
:103B300082ED90E09D878C878CED90E09F878E874B
:103B400061E176E0CE013FD31B8A1A8A198A188A6E
:103B50008DE290E09D878C8788EC90E09F878E8730
:103B600069EF75E0CE012FD31B8A1A8A198A188A49
:103B700086E490E09D878C878BEE90E09F878E8710
:103B800067E076E0CE01DF91CF911DC38F929F92C7
:103B9000AF92BF92CF92DF92EF92FF920F931F935B
:103BA000CF93DF93EC016A017B01480159016FEF6C
:103BB0007FEF0E94002A82E08C8B1B8A1A8A198A66
:103BC000188A86E490E09D878C878EE190E09F873D
:103BD0008E8767E176E0CE01F6D200E010E028EBB8
:103BE00031E049E250E060E070E0CE013ED528EBE4
:103BF00031E04AE250E060E070E0CE0136D528EBDB
:103C000031E04BE250E060E070E0CE012ED528EBD1
:103C100031E04CE250E060E070E0CE0126D528EBC8
:103C200031E04DE250E060E070E0CE011ED5FE01D3
:103C3000EE5BFF4F2EEB30E031832083329680E540
:103C400090E0918380831B8A1A8A198A188A3D879B
:103C50002C879F878E8721E030E0B701A601CE0137
:103C6000B1D220E030E0A901C701B6010E94A954F9
:103C700018161CF4CE0109DF02C0CE0149DF1B8AF1
:103C80001A8A198A188A04E110E01D870C8780E5DA
:103C900090E09F878E8763E276E0CE0194D21B8A04
:103CA0001A8A198A188A1D870C870CE810E01F876A
:103CB0000E876DE276E0CE0186D21B8A1A8A198AB7
:103CC000188A8EEB90E09D878C871F870E8721E0F6
:103CD00030E0B501A401CE0175D260E070E0CE0104
:103CE00034DE60E070E0CE01DF91CF911F910F9143
:103CF000FF90EF90DF90CF90BF90AF909F908F900C
:103D000074CE4F925F926F927F928F929F92AF92FA
:103D1000BF92CF92DF92EF92FF920F931F93CF93B8
:103D2000DF93EC016B0129013A01470158018FEF44
:103D30009FEF9B8B8A8B998B888B04E110E01D870A
:103D40000C8786E4E82EF12CFF86EE86CE013BD26E
:103D50006BE073E0CE0137D220E030E0B301A20186
:103D6000CE0130D21B8A1A8A198A188A1D870C87BD
:103D7000FF86EE86B601CE0126D26BE073E0CE015F
:103D800022D220E030E0B501A401CE01DF91CF9135
:103D90001F910F91FF90EF90DF90CF90BF90AF9069
:103DA0009F908F907F906F905F904F900BC2AF92DB
:103DB000BF92CF92DF92EF92FF920F931F935B011E
:103DC00021E9C22ED12C3AE0E32EF12C06E810E0D6
:103DD00029E130E04DE750E06AE070E00E94132CEA
:103DE0001F910F91FF90EF90DF90CF90BF90AF9019
:103DF0000895CF92DF92EF92FF920F931F93CF938C
:103E0000DF936C017A018B01C0E0D0E0CE15DF05B5
:103E100089F0D8016D918D01D601ED91FC91019051
:103E2000F081E02DC6011995892B11F47E0102C0A5
:103E30002196ECCFC701DF91CF911F910F91FF9099
:103E4000EF90DF90CF900895FC01A4A1B5A19C91C3
:103E500081A589238C93A4A1B5A19C9180A5892BD0
:103E60008C9308950895FC016370658B848195811E
:103E700026813781613039F0633029F0918780875E
:103E80003387228708953187208793878287089513
:103E90000E9457566115710579F0FB0101900020D1
:103EA000E9F73197AF01461B570BDC01ED91FC910F
:103EB0000280F381E02D199480E090E008958EE077
:103EC00097E00E94F83921E0892B09F420E0822F45
:103ED0000895FC0186A987FD06C0A28DB38D9C9133
:103EE00080A9892B8C9384A9811101C0E0C8089511
:103EF0004F925F926F927F92EF92FF920F931F9378
:103F0000CF93DF93CDB7DEB7A1970FB6F894DEBF9E
:103F10000FBECDBF7C01FA01CB0119A2223008F4FB
:103F20002AE08E010F5D1F4F422E512C612C712C07
:103F3000BF01A30192010E941453F901CA0101506B
:103F400011096A3014F4605D01C0695CD8016C939A
:103F5000232B242B252B61F7B801C7019BDFA196EA
:103F60000FB6F894DEBF0FBECDBFDF91CF911F918A
:103F70000F91FF90EF907F906F905F904F9008951A
:103F800065E376E087CF0F931F93CF93DF93EC0128
:103F90002115310541F4E881F9810190F081E02D8E
:103FA000642F199501C0A4DF8C01CE01E9DF800FD9
:103FB000911FDF91CF911F910F9108950F931F9340
:103FC000CF93DF93EC0166DF8C01CE01D9DF800F48
:103FD000911FDF91CF911F910F910895DC01ED9119
:103FE000FC910190F081E02D19944F925F926F92B5
:103FF0007F928F929F92AF92BF92CF92DF92EF9279
:10400000FF92CF93DF93EC016A017B01B22E9A01FC
:10401000AB01C701B6010E94EF54882319F068E391
:1040200076E027C026013701E89477F82FEF3FEFBD
:104030004FE75FE7C301B2010E94EF5481110DC049
:104040002FEF3FEF4FE75FE7C301B2010E94E55159
:1040500018161CF46CE376E00CC02FEF3FEF4FE72F
:104060005FE4C701B6010E94A954181694F460E4F5
:1040700076E0CE01DF91CF91FF90EF90DF90CF906F
:10408000BF90AF909F908F907F906F905F904F9078
:1040900001CF2FEF3FEF4FE75FECC701B6010E9462
:1040A000E55187FDE4CF20E030E0A901C701B6016A
:1040B0000E94E55187FF09C06DE2CE018FDF4C0100
:1040C000F7FAF094F7F8F09402C0812C912CA12C0F
:1040D00060E070E080E09FE3AB1441F020E030E06E
:1040E00040E251E40E94BD53A394F6CF9B01AC0182
:1040F000C701B6010E9446532B013C010E942A547D
:104100006B017C010E94E9519B01AC01C301B2012A
:104110000E9445532B013C012AE0B701A601CE01C4
:10412000E7DE7C01E80CF91CBB2029F06EE2CE0131
:1041300055DFE80EF91EDB2CDD2021F120E030E018
:1041400040E251E4C301B2010E944A522B013C01FA
:104150000E942A544B01A12CB12C2AE0B501A401E4
:10416000CE01C6DEE80EF91EC501B4010E94E95178
:104170009B01AC01C301B2010E9445532B013C01DC
:10418000DA94DACFC701DF91CF91FF90EF90DF9003
:10419000CF90BF90AF909F908F907F906F905F90E7
:1041A0004F9008950F931F93CF93DF93EC011DDF82
:1041B0008C01CE01E5DE800F911FDF91CF911F9121
:1041C0000F91089512CF66CE1F920F920FB60F92E5
:1041D00011240BB60F922F933F934F935F936F93DE
:1041E0007F938F939F93AF93BF93EF93FF938EE053
:1041F00097E00E94923BFF91EF91BF91AF919F9109
:104200008F917F916F915F914F913F912F910F907F
:104210000BBE0F900FBE0F901F9018951F920F921C
:104220000FB60F9211240BB60F922F938F939F937B
:10423000EF93FF93E0911E07F0911F078081E091BB
:104240002407F091250782FD12C0908180912707F5
:104250008F5F8F7320912807821751F0E091270715
:10426000F0E0E25FF84F958F8093270701C08081CF
:10427000FF91EF919F918F912F910F900BBE0F9017
:104280000FBE0F901F901895DC019296ED91FC9156
:104290009397908197968C91892380830895DC0170
:1042A0009296ED91FC919397908196968C91892BA3
:1042B00080830895FF920F931F93CF93DF93EC01B8
:1042C0008B018CA9811109C01EBD0DB407FEFDCF65
:1042D0000EBD0DB407FEFDCF28C08130B9F490E1CA
:1042E000F92EE8A1F9A1908117FF03C08CA1892BB9
:1042F00002C08DA189238083CE01D1DFCE01C4DF2E
:10430000000F111FFA94F110ECCF0FC0EE8DFF8D4E
:104310001083CE0199DDEE8DFF8D0083CE01DF91FC
:10432000CF911F910F91FF908FCDDF91CF911F9172
:104330000F91FF900895AF92BF92CF92DF92EF92CC
:10434000FF920F931F93CF93DF93EC0177FD37C05C
:10435000888599856817790794F557FD30C08A8557
:104360009B85481759075CF569015A017B01E88173
:10437000F9810284F385E02DCE011995E881F98158
:1043800002A4F3A5E02D01E010E021E030E0A5015A
:10439000B701CE011995B601CE018CDFE881F98114
:1043A0000688F789E02DCE01DF91CF911F910F9103
:1043B000FF90EF90DF90CF90BF90AF901994DF9176
:1043C000CF911F910F91FF90EF90DF90CF90BF9012
:1043D000AF900895EF92FF920F931F93CF93DF93C7
:1043E000EC0177FD21C08885998568177907E4F489
:1043F00057FD1AC08A859B8548175907ACF4790187
:10440000E881F98102A4F3A5E02D01E010E021E0AC
:1044100030E0CE011995B701CE01DF91CF911F9108
:104420000F91FF90EF9046CFDF91CF911F910F91A9
:10443000FF90EF9008958F929F92AF92BF92CF928C
:10444000DF92EF92FF920F931F93CF93DF93EC01D4
:1044500069014801BE2CAF2CE881F98102A4F3A5C3
:10446000E02D19959401D6010E941E556115710524
:104470008105910509F46FC02CA921110FC061506D
:1044800071098109910908F466C0AEBC0DB407FE3C
:10449000FDCFBEBC0DB407FEFDCFF1CF213089F5B5
:1044A0006B017C010A2D18E0E8A1F9A1908107FFBA
:1044B00003C08CA1892B02C08DA189238083CE01EA
:1044C000EEDECE01E1DE000F115071F70B2D18E08A
:1044D000E8A1F9A1908107FF03C08CA1892B02C03C
:1044E0008DA189238083CE01DADECE01CDDE000FDF
:1044F000115071F781E0C81AD108E108F10891F66E
:104500002AC0FE1016C0EE8DFF8DF0826B017C017B
:10451000CC0CDD1CEE1CFF1CC114D104E104F10421
:10452000D1F0CE0191DC21E0C21AD108E108F108F6
:10453000F3CF6B017C01EE8DFF8DA082CE0184DC78
:10454000EE8DFF8DB082CE017FDC81E0C81AD108EC
:10455000E108F10881F7DF91CF911F910F91FF9052
:10456000EF90DF90CF90BF90AF909F908F90089585
:10457000AF92BF92CF92DF92EF92FF920F931F9371
:10458000CF93DF9300D01F92CDB7DEB76C015901F6
:1045900077FD5CC0DC0118968D919C911997681786
:1045A00079070CF053C02115310509F44FC037FFCE
:1045B00007C0C9010196480F591FB194A194B108D1
:1045C000F60182859385481759070CF03FC0FA0120
:1045D000EA0DFB1D9F012150310937FD37C057FF00
:1045E00003C05F0140E050E0281739071CF05C0170
:1045F000A41AB50AD601ED91FC910284F385E02D51
:10460000C6014B835C8369837A83199578018501A0
:1046100021E030E04B815C8169817A81C6010BDF4A
:10462000D601ED91FC910688F789E02DC6010F9027
:104630000F900F900F90DF91CF911F910F91FF90EE
:10464000EF90DF90CF90BF90AF9019940F900F90A4
:104650000F900F90DF91CF911F910F91FF90EF90EE
:10466000DF90CF90BF90AF900895CF92DF92EF92FE
:10467000FF920F931F93CF93DF9300D000D0CDB75D
:10468000DEB76C0157FD5EC0DC011A968D919C91DE
:104690001B97481759070CF055C02115310509F42F
:1046A00051C037FF07C0C9010196680F791F3195C6
:1046B00021953109F60180859185681779070CF0FD
:1046C00041C0DB01A20FB31FFD013197F7FD3AC0D6
:1046D00077FF03C09D0160E070E0E817F9071CF068
:1046E0009C01261B370BD601ED91FC910284F385CA
:1046F000E02DC6012D833E834B835C8369837A83DF
:104700001995780101E010E02D813E814B815C819B
:1047100069817A81C6018FDED601ED91FC91068810
:10472000F789E02DC60126960FB6F894DEBF0FBEBE
:10473000CDBFDF91CF911F910F91FF90EF90DF9050
:10474000CF90199426960FB6F894DEBF0FBECDBF5A
:10475000DF91CF911F910F91FF90EF90DF90CF905D
:1047600008956F927F928F929F92AF92BF92CF9255
:10477000DF92EF92FF920F931F93CF93DF9300D0BE
:1047800000D0CDB7DEB73C0147012115310509F452
:104790007DC00115110509F479C037FF07C0C901B3
:1047A0000196680F791F319521953109D30118962B
:1047B000AD90BC9019976A157B050CF067C017FF88
:1047C00007C0C8010196480F591F1195019511099D
:1047D000F30182859385481759070CF057C06B0188
:1047E000C20ED31ED6011197B7FD50C07A01E00E5C
:1047F000F11EF7013197F7FD49C077FF03C096011D
:1048000060E070E057FF03C0870140E050E0AA1568
:10481000BB051CF09501261B370BE817F9071CF0A8
:104820008C01041B150BD301ED91FC910284F385DF
:10483000E02DC3012D833E834B835C8369837A83A0
:10484000199574012D813E814B815C8169817A814A
:10485000C301F1DDD301ED91FC910688F789E02DCC
:10486000C30126960FB6F894DEBF0FBECDBFDF9111
:10487000CF911F910F91FF90EF90DF90CF90BF905D
:10488000AF909F908F907F906F90199426960FB65F
:10489000F894DEBF0FBECDBFDF91CF911F910F9176
:1048A000FF90EF90DF90CF90BF90AF909F908F9050
:1048B0007F906F900895EF92FF920F931F93CF9385
:1048C000DF9377FD33C0DC011896ED91FC911997C9
:1048D0006E177F075CF52115310541F137FF07C0E1
:1048E000F90131964E0F5F1F319521953109DC0199
:1048F0001A96ED91FC911B974E175F07BCF4EA01E5
:10490000C20FD31FDE011197B7FD10C057FF03C0C0
:104910009E0140E050E0AE17BF071CF09F01241B32
:10492000350B7801890121E030E085DDDF91CF9101
:104930001F910F91FF90EF900895EF92FF920F93C8
:104940001F93CF93DF9357FD32C0DC011A96ED9190
:10495000FC911B974E175F0754F52115310539F16E
:1049600037FF07C0F90131966E0F7F1F31952195F2
:104970003109DC011896ED91FC9119976E177F07AC
:10498000B4F4EB01C20FD31FDE011197B7FD0FC0C6
:1049900077FF03C09E0160E070E0AE17BF071CF018
:1049A0009F01261B370B780101E010E044DDDF9109
:1049B000CF911F910F91FF90EF9008958F929F924A
:1049C000AF92BF92CF92DF92EF92FF920F931F931D
:1049D000CF93DF9347012115310509F44CC0011530
:1049E000110509F448C037FF07C0F90131966E0F71
:1049F0007F1F319521953109DC011896AD90BC904F
:104A000019976A157B05BCF517FF07C0F8013196A9
:104A10004E0F5F1F119501951109DC011A96ED915A
:104A2000FC911B974E175F0734F56B01C20ED31E26
:104A3000E6012197D7FD1FC07A01E00EF11ED701D4
:104A40001197B7FD18C077FF03C0960160E070E0D2
:104A500057FF03C0870140E050E0CA15DB051CF09A
:104A60009501261B370BAE17BF071CF08F01041BE7
:104A7000150B7401E0DCDF91CF911F910F91FF9036
:104A8000EF90DF90CF90BF90AF909F908F90089560
:104A90000F931F93CF93DF93EC01162F8CA98111F5
:104AA00005C06EBD0DB407FEFDCF1FC08130A1F45F
:104AB00008E0E8A1F9A1908117FF03C08CA1892B20
:104AC00002C08DA189238083CE01E9DB110FCE01C5
:104AD000DBDB015071F709C0EE8DFF8D6083CE01E5
:104AE000DF91CF911F910F91AFC9DF91CF911F91AE
:104AF0000F910895CF93DF93EC01EC8DFD8D9081A4
:104B00008BA989238083CE01C3DFEC8DFD8D90813D
:104B10008AA9892B8083DF91CF9108950F931F93EA
:104B2000CF93DF931F92CDB7DEB78C01DC01ED91FF
:104B3000FC910284F385E02D6983199569816623D0
:104B400019F0F80164AD03C0D801DD966C91C8017D
:104B5000D1DFD801ED91FC910688F789E02DC801DD
:104B60000F90DF91CF911F910F911994FC0124A90F
:104B7000211104C080A191A10C94C7190895CF936D
:104B8000DF93EC01F3DF8EA987FD06C0EA8DFB8D74
:104B9000908189A989238083DF91CF910895AF9275
:104BA000BF92CF92DF92EF92FF920F931F93CF931A
:104BB000DF931F92CDB7DEB75C016A01022F6983D4
:104BC000D5DFD501D6968C91D697698187FD09C02E
:104BD0005A96ED91FC915B979081D1968C918923A7
:104BE0008083D5015C96ED91FC915D979081D39681
:104BF0008C9189238083C5014BDFD5015C96ED91B3
:104C0000FC915D979081D2968C91892B808376015F
:104C100010E0C7018C199D098017910734F4F70142
:104C200061917F01C50134DFF4CFD501D6968C9117
:104C3000D69787FD09C05A96ED91FC915B979081BC
:104C4000D0968C91892B8083F50184A981110DC0A8
:104C50000F90DF91CF911F910F91FF90EF90DF9018
:104C6000CF90BF90AF900C9457180F90DF91CF91D9
:104C70001F910F91FF90EF90DF90CF90BF90AF907A
:104C800008952F923F924F925F926F927F928F92F0
:104C90009F92AF92BF92CF92DF92EF92FF920F93CB
:104CA0001F93CF93DF93CDB7DEB76C970FB6F89411
:104CB000DEBF0FBECDBF9C8F8B8F5B011A011F83A0
:104CC0000E833701C982DC0158964D915C9159974A
:104CD0004115510509F0E5C018968D919C911997E1
:104CE000681779070CF0CAC11A968D919C911B9791
:104CF000281639060CF0C2C18C2C912CFB0136E031
:104D0000C39EE00DF11D1124FB87EA871E161F06C6
:104D10000CF0B4C1C40133E0880F991F3A95E1F754
:104D20009D878C87820D931D181619060CF0A6C15D
:104D300057968C91811103C0203B08F02F5FAB8DFB
:104D4000BC8DED91FC9111970284F385E02DCD018E
:104D50002A8F19952A8DB5E02B9F90011124F5011A
:104D60003596FF87EE87BB82AA822501A9014A19E1
:104D70005B09598B488BC10108969B8B8A8BE8890C
:104D8000F989E40DF51DE454F64D9491988761017D
:104D90003D822C82A885A0FF13C0AB8DBC8DED9108
:104DA000FC91B981B13031F40484F585E02D2E8178
:104DB0003F8116C00684F785E02DEE80FF801AC083
:104DC000EE81FF816E167F06F1F0AB8DBC8DED910B
:104DD000FC91B981B13051F40484F585E02D930143
:104DE000A601B2018B8D9C8D19950DC00684F785A7
:104DF000E02D7301840194014C815D816A817B8186
:104E00008B8D9C8D1995E885E695E887FFEFCF1A85
:104E1000DF0A2C813D81280D391D3D832C834A8971
:104E20005B89C416D50609F0B5CF5FEF451A550A60
:104E30008A819B81880D991D9B838A83AE85BF855E
:104E40004A165B0609F09BCFEE81FF816E167F0646
:104E500009F4F2C0EB8DFC8DA081B181F981F130B4
:104E600079F4B5016B5F7F4F5096ED91FC915197AE
:104E7000830128E030E0A1018B8D9C8D1995DCC069
:104E80006A857B85681979091E96ED91FC911F97BB
:104E900073010C851D859401A1018B8D9C8D199545
:104EA000CBC0FA0134969491329765917491291B85
:104EB000CB01B7E02B9F800D911D1124FA012591A4
:104EC00034913B8B2A8BFC01459154915B834A833F
:104ED000FC013296C490319654915E8732961491BB
:104EE0003196D4908981823058F0612E012E000CC9
:104EF0007708AD2D0D2C000CBB0BB987A88704C01B
:104F000019861886612C712CAB8DBC8DED91FC91AE
:104F100011970284F385E02DCD011995B9818B2E6F
:104F2000912C689CC001699C900D789C900D112477
:104F3000FC01EA0DFB1DFD87EC871C82712C612CA6
:104F4000E12F110FFF0B95012E0F3F1F3B872A8783
:104F5000AC0CB11CA5014E0F5F1F5F8B4E8BC101C6
:104F60008D0D911DD7FC9A95998F888F4E8564166B
:104F700008F062C0862D90E048855985480F591F7A
:104F8000489D9001499D300D589D300D1124D90147
:104F9000A20DB31DB98BA88BAA84BB844C845D84FD
:104FA000DC80BA85DB1AE88DF98DE80FF91FFD8BDF
:104FB000EC8B8D2D8A0D2E893F89A216B306B9F18F
:104FC000877061F48A819B810196EA89FB89AA81B5
:104FD000BB81EA0FFB1F74909B838A8377FE20C0FE
:104FE000AB8DBC8DED91FC91B981B13061F404843D
:104FF000F585E02D2E813F814C895D89B5018B8D32
:105000009C8D19950DC00684F785E02DEE80FF80FC
:105010008401940148895989B2018B8D9C8D199521
:10502000770CEFEFAE1ABE0A480C591CC2CF3C8178
:105030003C0D3C8363949ACFAB8DBC8DED91FC917C
:1050400011970688F789E02DCD016C960FB6F8947C
:10505000DEBF0FBECDBFDF91CF911F910F91FF90AB
:10506000EF90DF90CF90BF90AF909F908F907F9008
:105070006F905F904F903F902F9019946C960FB661
:10508000F894DEBF0FBECDBFDF91CF911F910F917E
:10509000FF90EF90DF90CF90BF90AF909F908F9058
:1050A0007F906F905F904F903F902F900895AF92B8
:1050B000BF92CF92EF92FF920F931F93CF93DF9304
:1050C000EC01262F888D998D009709F03FC06A303A
:1050D00059F41D861C862C898E859F8538E0239F78
:1050E000800D911D112440C06D3009F4A8C08E8937
:1050F0008823C1F03C898C859D8546E0349F800DD6
:10510000911D112448855985481759075CF41D865F
:105110001C868E859F8548E0349F800D911D11244B
:105120009F878E87EA88FB88088919894E855F8565
:105130006C857D85CC88CE01A4DD2C898C859D85F0
:1051400036E0239F800D911D112442C06A3079F40E
:105150001D861C862C89FC013696E4918E859F85E0
:105160002E9F800D911D11249F878E8768C06D3002
:1051700009F465C0FC0134963491631708F45FC0EC
:105180003196E491E61708F45AC0FC013296A590D6
:10519000B490462F50E0431B510937E0349FB001D3
:1051A000359F700D1124A60EB71EF501329634916D
:1051B0003196E491332311F0E1110DC0F5013496DD
:1051C000E4912C898C859D85E29F800D911D112491
:1051D0009D878C8734C0F501359644915E895523AF
:1051E00011F16C89E32FF0E0E40FF11D47FDFA9512
:1051F0006E9FD0016F9FB00D11244C855D854A0FC5
:105200005B1FE885F985E417F5076CF41D861C869D
:10521000FC013696E4918E859F856E9F800D911DD1
:1052200011249F878E87EA88FB88088919894E8513
:105230005F856C857D85CC88CE0123DDBFCF81E085
:1052400090E0DF91CF911F910F91FF90EF90CF9061
:10525000BF90AF9008956F927F928F929F92AF927E
:10526000BF92CF92DF92EF92FF920F931F93CF9353
:10527000DF93EC014B015A0169013801E881F981A2
:105280000284F385E02D1995E881F9810288F3897C
:10529000E02D87019601A501B401CE011995E881A1
:1052A000F981A501460D571D415051090288F38926
:1052B000E02D9601B401CE011995E881F9810088AD
:1052C000F189E02D9301A501B401CE011995E88182
:1052D000F981C80CD91CB601615071090088F189A7
:1052E000E02D9301A501CE011995E881F981068889
:1052F000F789E02DCE01DF91CF911F910F91FF90A3
:10530000EF90DF90CF90BF90AF909F908F907F9065
:105310006F901994CF92DF92EF92FF920F931F93A9
:10532000CF93DF9300D000D0CDB7DEB76C01DC01A6
:10533000ED91FC916217730789F4041715072CF49B
:10534000942F852FA801092F182F041B150B9801E6
:105350002F5F3F4F048CF58DE02D12C04017510791
:1053600009F5261737072CF4962F872FB901292F17
:10537000382F261B370B2F5F3F4F068CF78DE02D04
:105380008701C601199526960FB6F894DEBF0FBEA9
:10539000CDBFDF91CF911F910F91FF90EF90DF90E4
:1053A000CF9008950284F385E02D2D833E834B83B7
:1053B0005C8369837A831995D601ED91FC91048809
:1053C000F589E02D2D813E814B815C8169817A8157
:1053D000C6011995D601ED91FC910688F789E02D5B
:1053E000C60126960FB6F894DEBF0FBECDBFDF9183
:1053F000CF911F910F91FF90EF90DF90CF90199474
:10540000EF92FF920F931F93DC01ED91FC911197A6
:105410001A960D911C911B9718962D913C911997F6
:1054200000A0F1A1E02D7B0140E050E060E070E0E1
:1054300019951F910F91FF90EF9008954F925F92F1
:105440006F927F928F929F92AF92BF92CF92DF9294
:10545000EF92FF920F931F93CF93DF931F921F92B0
:10546000CDB7DEB76C015A0139014801DC01ED917D
:10547000FC910284F385E02D69837A831995698113
:10548000462E7A81572E640C751CD601ED91FC9145
:10549000461457046CF40088F189E02D87019401CB
:1054A000A501B201C6011995BFEF4B1A5B0AEDCFFA
:1054B0000688F789E02DC6010F900F90DF91CF91FC
:1054C0001F910F91FF90EF90DF90CF90BF90AF9022
:1054D0009F908F907F906F905F904F901994AF92B4
:1054E000BF92CF92DF92EF92FF920F931F93CF93D1
:1054F000DF9300D01F92CDB7DEB75C016901DC01FC
:10550000ED91FC910284F385E02D4B835C836983EC
:105510007A831995D501ED91FC9169817A819B017E
:105520002C0D3D1D215031090488F589E02D7801AD
:105530004B815C818A01C5011995D501ED91FC91E2
:105540000688F789E02DC5010F900F900F900F90FE
:10555000DF91CF911F910F91FF90EF90DF90CF904F
:10556000BF90AF901994AF92BF92CF92DF92EF921B
:10557000FF920F931F93CF93DF9300D01F92CDB76D
:10558000DEB75C016901DC01ED91FC910284F385D9
:10559000E02D4B835C8369837A831995D501ED9166
:1055A000FC914B815C81C40ED51EB1E0CB1AD108B1
:1055B0000488F589E02D7801860169817A819B0153
:1055C000C5011995D501ED91FC910688F789E02D6B
:1055D000C5010F900F900F900F90DF91CF911F9109
:1055E0000F91FF90EF90DF90CF90BF90AF90199404
:1055F0000895EF92FF920F931F93DC01ED91FC91C0
:1056000000A0F1A1E02D19951F910F91FF90EF904F
:1056100008950F931F93DC01ED91FC91068CF78D9B
:10562000E02D19951F910F9108950F931F93DC01A1
:10563000ED91FC91048CF58DE02D19951F910F9142
:105640000895DC01ED91FC910084F185E02D199421
:1056500008952F923F924F925F926F927F928F9216
:105660009F92AF92BF92CF92DF92EF92FF920F93F1
:105670001F93CF93DF9300D0CDB7DEB74C017B8370
:105680006A836A01590117019801241B350B37FF02
:1056900003C0319521953109C5014A815B81841B85
:1056A000950B97FF03C091958195910951E059831E
:1056B0008217930714F019820BC09A2D8B2D580175
:1056C000092F182F9A818B81DB82CA82C92ED82E8E
:1056D0008A819B81A816B9065CF49C2D8D2D6801EA
:1056E000092F182F9A818B81BB82AA82A92EB82EEE
:1056F0002501AA81BB814A1A5B0A38016C187D0812
:1057000077FE03C0719461947108720157FE03C063
:10571000BFEFEB1AFB0AF594E794C016D1061CF014
:105720000FEF1FEF1FC001E010E01CC0D401ED918E
:10573000FC91B9810484F585E02D9101BB23C1F072
:105740004A815B81B601C4011995E618F708F7FE96
:1057500004C0C00ED11EE40CF51CEA81FB81319619
:10576000FB83EA834A815B81A416B506FCF604C07C
:10577000A6016A817B81E7CF0F900F900F90DF9198
:10578000CF911F910F91FF90EF90DF90CF90BF903E
:10579000AF909F908F907F906F905F904F903F90D1
:1057A0002F900895AF92BF92CF92DF92EF92FF9227
:1057B0000F931F93CF93DF93EC015B016A0121509C
:1057C00031097901E60EF71E01501109040F151F6A
:1057D0006AE290D9B501CE010E945A21B701CE01EB
:1057E0000E945A216BE2CE0185D9B601CE010E94FA
:1057F0005A21B801CE010E945A216CE2CE01DF91FC
:10580000CF911F910F91FF90EF90DF90CF90BF90BD
:10581000AF9070C9611102C060E201C061E220E096
:1058200040E050E0BCC92F923F924F925F926F923E
:105830007F928F929F92AF92BF92CF92DF92EF9220
:10584000FF920F931F93CF93DF93CDB7DEB7AA9745
:105850000FB6F894DEBF0FBECDBF9A8389837AA7B7
:1058600069A73A01190148012601B88AAF860417D1
:1058700015077CF4892DC416D5060CF0AEC146017F
:105880002A01602E782E832D17017B0129A78AA774
:105890000DC0C016D106C4F4982D892D4201492EA1
:1058A000582E922D832D1701E92EF82E8614970479
:1058B0005CF4962D872D3401892E982E99A58AA502
:1058C0003AA629A6292E382EA981BA81ED91FC91FC
:1058D00011970284F385E02DCD01199564147504A8
:1058E00051F5E9A5FAA52E163F062CF0922D832D31
:1058F0001F0199A78AA7E214F30444F029A53AA549
:105900002E153F0514F4FAA6E9A67101A981BA8102
:10591000ED91FC91119729A53AA52E193F092F5F0A
:105920003F4F0288F389E02D0F851889A301B70145
:10593000CD01199530C1C101E9A5FAA58E1B9F0BB8
:10594000940126193709A7014E1B5F0B588F4F8B07
:10595000B201661977097C876B876701C218D30883
:10596000D201A819B909BA8BA98B8414950429F01E
:10597000F4013197FE8BED8B02C09E8A8D8A530114
:105980001F82188619861A861B821C821D821E821F
:105990004F89588D052E000C660B770B498F5A8F57
:1059A0006B8F7C8FA901330F660B770B4D8F5E8F4A
:1059B0006F8F78A32B853C85032E000C440B550B71
:1059C00029A33AA34BA35CA3AC01990F660B770BF9
:1059D0004DA35EA36FA378A7ED89FE89EA15FB05A9
:1059E0000CF45AC06B817C818D819E812D8D3E8D02
:1059F0004F8D58A10E94FA54E9A4FAA4E20EF31EB6
:105A00006F81788589859A8529A13AA14BA15CA1EE
:105A10000E94FA5469A57AA5260F371F8B819C81B5
:105A2000AD81BE814DA15EA16FA178A5840F951FA8
:105A3000A61FB71F8B839C83AD83BE838F81988500
:105A4000A985BA85498D5A8D6B8D7C8D840F951FE4
:105A5000A61FB71F8F839887A987BA872E153F0582
:105A60002CF49E2D8F2D7901292F382FA981BA81F1
:105A7000ED91FC9111972E193F092F5F3F4F02883E
:105A8000F389E02D0F851889A501B701CD0119957E
:105A9000BFEFAB1ABB0AA0CF96010D2C000C440B34
:105AA000550B2F83388749875A87D501A819B9091B
:105AB00096010E941E556B017C01D501A619B709FC
:105AC0002F89388D0E941E553B014C0149895A8906
:105AD000052E000C660B770B498B5A8B6B8B7C8BDE
:105AE0006B857C85072E000C880B990B6B877C8758
:105AF0008D879E874A145B040CF44DC0C701B60124
:105B000029893A894B895C890E94FA54C101820F24
:105B1000931F9C838B83C401B3012B853C854D85EA
:105B20005E850E94FA54A9A5BAA52A0F3B1F4F8192
:105B3000588569857A85C40ED51EE61EF71E698DC7
:105B40007A8D8B8D9C8D660E771E881E991E8B819B
:105B50009C812817390734F49B818C813C832B83EB
:105B6000292F382FA981BA81ED91FC9111974B8192
:105B70005C81241B350B2F5F3F4F0288F389E02D9A
:105B80000F851889A5016B817C81CD0119955FEF87
:105B9000A51AB50AAFCFA981BA81ED91FC911197F1
:105BA0000688F789E02DCD01AA960FB6F894DEBFDE
:105BB0000FBECDBFDF91CF911F910F91FF90EF905E
:105BC000DF90CF90BF90AF909F908F907F906F901D
:105BD0005F904F903F902F9019944A01602E782E3D
:105BE000832D29A43AA429A78AA76ECE2F923F928B
:105BF0004F925F926F927F928F929F92AF92BF92DD
:105C0000CF92DF92EF92FF920F931F93CF93DF9388
:105C100000D01F92CDB7DEB79C838B831B012A0176
:105C200049013801FA82E982DC01ED91FC9104A07E
:105C3000F5A1E02D75011995AB81BC81ED91FC9129
:105C4000119704A0F5A1E02D860129813A81A301D5
:105C5000B401CD011995AB81BC81ED91FC911197F7
:105C600004A0F5A1E02D82019101A60169817A814C
:105C7000CD0119950F900F900F900F90DF91CF915C
:105C80001F910F91FF90EF90DF90CF90BF90AF905A
:105C90009F908F907F906F905F904F903F902F904C
:105CA00008952F923F924F925F926F927F928F92C0
:105CB0009F92AF92BF92CF92DF92EF92FF920F939B
:105CC0001F93CF93DF93CDB7DEB72C970FB6F89421
:105CD000DEBF0FBECDBF5C013B0158874F833C87C1
:105CE0002B8781E090E02C01421A530AC90191955B
:105CF000819591099C01220F331F3C832B83C7019F
:105D000001969E838D831A019A83898388248394C4
:105D1000912C902F9170998702700A87C401019786
:105D2000EB85FC858E179F070CF085C0EB84FC8407
:105D300057FC0AC0A1E0EA1AF108EB81FC81329617
:105D4000FC83EB834E0E5F1EC401880F991F0196E2
:105D5000480E591EE814F904A4F1F985FF23B9F09F
:105D6000D501ED91FC919701220F331F8D819E810A
:105D7000280F391F0088F189E02D86014F81588551
:105D80004E195F09B401660D771DC50119959A85F5
:105D90009923B9F0D501ED91FC919701220F331FA2
:105DA0008D819E81280F391F0088F189E02D8601A1
:105DB0004F8158854E195F09B30168197909C501EA
:105DC0001995AB85BC85EA16FB0639F1B985BB236D
